:040000000BEF00F012
:100008006582FACF09F0FBCF0AF0A3ED02F0BAEF50
:1000180005F0000E0001A86F000EA96F000EAA6F70
:10002800000EAB6F000E0001AC6F0DEC06F0A6ECF5
:1000380005F0818405EC06F0EAEC05F009EC06F021
:10004800CDEC05F001EC06F081921ED082B003D011
:10005800386A382A01D0386A82503818FE0B3818A6
:10006800826E82B403D0386A382A01D0386A38469A
:10007800384682503818FB0B3818826E000E186EFE
:10008800500E176E77EC05F081A0E0D78290000E35
:10009800596E000E5A6E000E5B6E000E5C6E000EFE
:1000A8000001AF6F000EAE6F0001AF5127E10A0EDD
:1000B8000001AE5DD8B022D0D8900001AE35D96E1F
:1000C8000001AF35DA6E390ED926000EDA22300E6D
:1000D800DE6E030EDD6ED8900001AE35D96E0001DC
:1000E800AF35DA6E800ED926000EDA22000EDE6EEB
:1000F800000EDD6E0001AE4BAF2BD6D7000E4D6E55
:10010800000E4E6E000E4F6E000E506E000E516EB9
:10011800000E526E000E536E000E546E52D0040E36
:10012800EEEC03F020C0B0F021C0B1F001EC06F015
:100138000001B1BF0FD0E50E0001B05D030E000154
:10014800B159D8A007D08280828282868288828C28
:10015800828E2ED00001B1BF0DD07C0E0001B05DA3
:10016800030E0001B159D8A005D082808282828610
:1001780082881ED00001B1BF0BD0310E0001B05DE6
:10018800030E0001B159D8A003D08280828210D01A
:1001980082808282000E186E640E176E77EC05F06E
:1001A80082908292000E186E640E176E77EC05F03E
:1001B80037EC03F00001AD6F0001AD510001D8A488
:1001C80009D05C505B1006E1E80E595C030E5A58E2
:1001D800D8A0A5D7000EF6EC05F0626E040E62609A
:1001E80003D06250D8A402D0010E626E0001AC5157
:1001F8000001D8A41BD037EC03F00001AD6F06D086
:10020800A5EC01F00ED00EEC05F00BD00001AD51BD
:10021800010AD8B406D0030AD8B4F2D7010AD8B470
:10022800F2D75D505E10D8A431EC05F080A885D0D7
:10023800010E0001AC6F80A202D0010E01D0000EA9
:1002480095EC03F020C0B0F021C0B1F00001B1BFBF
:100258000CD0210E0001B05D030E0001B159D8A0E9
:1002680004D0828082828284C1D7040E95EC03F088
:1002780020C0B0F021C0B1F001EC06F00001B1BF20
:100288001BD0E50E0001B05D030E0001B159D8A0E6
:1002980013D08280828282868288828C828E000E2F
:1002A800186EC80E176E77EC05F0829082928296CF
:1002B8008298829C829E9AD70001B1BF17D07C0E8B
:1002C8000001B05D030E0001B159D8A00FD08280A3
:1002D800828282868288000E186EC80E176E77ECAE
:1002E80005F0829082928296829880D70001B1BFF1
:1002F80013D0310E0001B05D030E0001B159D8A032
:100308000BD082808282000E186EC80E176E77ECB2
:1003180005F0829082926AD782808282000E186EDF
:10032800640E176E77EC05F082908292000E186EBC
:10033800640E176E77EC05F059D7000E0001AC6F0C
:1003480055D7000E2C6E000E2D6E000E2E6E000E70
:100358002F6E000E306E62C017F0000E92EC05F0A2
:10036800000EF6EC05F0626E818201EC06F059C0D1
:100378002DF05AC02EF05BC02FF05CC030F0DC0EC0
:100388002D24286E050E2E20296E000E2F202A6E91
:10039800000E30202B6E5950285C5A5029585B505B
:1003A8002A585C502B58D8B003D0010E2C6EC5D0FB
:1003B8009AEC04F0000E47EC04F020C031F021C0A4
:1003C80032F0AED0325004E1B50E315CD8A0B2D0D4
:1003D800010E2C6E828459C02DF05AC02EF05BC0DD
:1003E8002FF05CC030F010D0000E47EC04F020C0B5
:1003F80031F021C032F0325004E1B50E315CD8A0A2
:1004080002D0819201D08182E80E2D24286E030E3D
:100418002E20296E000E2F202A6E000E30202B6E03
:100428002850595C29505A582A505B582B505C5810
:10043800D8B080D0D9D7325004E1C90E315CD8A0E9
:1004480079D0010E2C6E8282828859C02DF05AC054
:100458002EF05BC02FF05CC030F010D0000E47ECDF
:1004680004F020C031F021C032F0325004E1C90E4E
:10047800315CD8A002D0819201D08182E80E2D246F
:10048800286E030E2E20296E000E2F202A6E000ED5
:1004980030202B6E2850595C29505A582A505B58E6
:1004A8002B505C58D8B046D0D9D7325004E1DD0E75
:1004B800315CD8A03FD0010E2C6E82808286828C5F
:1004C80059C02DF05AC02EF05BC02FF05CC030F040
:1004D80010D0000E47EC04F020C031F021C032F0FB
:1004E800325004E1DD0E315CD8A002D0819201D0F7
:1004F8008182E80E2D24286E030E2E20296E000E10
:100508002F202A6E000E30202B6E2850595C29505F
:100518005A582A505B582B505C58D8B00BD0D9D7B2
:100528006250010AD8B44ED7030AD8B484D7010A56
:10053800D8B4BBD72C50D8B422D781921200060069
:10054800E9CF0BF0EACF0CF0E1CF0DF0E2CF0EF0DF
:10055800D9CF0FF0DACF10F0F3CF11F0F4CF12F0BB
:10056800F6CF13F0F7CF14F0F8CF15F0F5CF16F05B
:10057800F2BAF2A414D0F294632A010E5926000E9E
:100588005A225B225C22320E6318D8A404D0000ED3
:10059800636E5D4A5E2A630ED76EC00ED66EF2B2E7
:1005A800F2A843D0F29255C001F056C002F057C0ED
:1005B80003F058C004F0011E021E031E041E012A87
:1005C800000E02220322042259500124056E5A50BB
:1005D8000220066E5B500320076E5C500420086EF4
:1005E80008500710061004E1020E055CD8A01DD0C3
:1005F80081B006D0F18C000E5E6E000E5D6E0DD0DF
:10060800F19C5DC05FF0010E616E59C051F05AC097
:1006180052F05BC053F05CC054F059C055F05AC05A
:1006280056F05BC057F05CC058F016C0F5FF15C017
:10063800F8FF14C0F7FF13C0F6FF12C0F4FF11C093
:10064800F3FF10C0DAFF0FC0D9FF0EC0E2FF0DC0E4
:10065800E1FF0CC0EAFF0BC0E9FF0AC0FBFF09C0BD
:10066800FAFF65921100000E1B6E000E1C6E000E44
:100678001D6E000E1E6E6150D8B451D0000E616E12
:100688004DC017F04EC018F04FC019F050C01AF006
:10069800171E181E191E1A1E172A000E18221922B4
:1006A8001A22515017241B6E525018201C6E53509A
:1006B80019201D6E54501A201E6E0C0E5F600BD050
:1006C800622A030E626402D0010E626E000E5E6E34
:1006D800000E5D6E02D0030E12001E501D101C107D
:1006E80014E1320E1B5CD8B010D062066250D8A458
:1006F80002D0030E626E62066250D8A402D0030EC6
:10070800626E31EC05F0020E120051C04DF052C07D
:100718004EF053C04FF054C050F0010E1200000EBE
:100728001200246E000E266E000E256E000E276E37
:10073800080E276401D01ED02750226E236AD89055
:1007480022362336020E2226000E2322940E22245D
:10075800D96E000E2320DA6E2750020D940EF32472
:10076800E16E000EF420E26EDECFE6FFDDCFE5FF9E
:10077800272ADED7245054EC05F019C0A6F01AC079
:10078800A7F0000E276E090E276401D014D0275059
:10079800020D940EF324D96E000EF420DA6EDECF2B
:1007A80022F0DDCF23F025502224256E2650232069
:1007B800266E272AE8D725C017F026C018F0000EA5
:1007C8001A6E0A0E196EE5EC04F017C020F018C076
:1007D80021F01200246E000E266E000E256E000E0B
:1007E800276E080E276401D01ED02750226E236A78
:1007F800D89022362336020E2226000E2322390EE6
:100808002224D96E000E2320DA6E2750020D390EED
:10081800F324E16E000EF420E26EDECFE6FFDDCFBA
:10082800E5FF272ADED7245054EC05F019C04BF019
:100838001AC04CF0000E276E090E276401D014D0A0
:100848002750020D390EF324D96E000EF420DA6E0B
:10085800DECF22F0DDCF23F025502224256E26504E
:100868002320266E272AE8D725C017F026C018F0BF
:10087800000E1A6E0A0E196EE5EC04F017C020F08F
:1008880018C021F01200246E000E266E000E256E90
:10089800000E276E080E276401D01ED02750226E46
:1008A800236AD89022362336020E2226000E2322EF
:1008B800800E2224D96E000E2320DA6E2750020DF6
:1008C800800EF324E16E000EF420E26EDECFE6FF28
:1008D800DDCFE5FF272ADED7245054EC05F019C0F8
:1008E80092F01AC093F0000E276E090E276401D00B
:1008F8000ED02750020D800EF324D96E000EF4207E
:10090800DA6EDE502526DD502622272AEED725C0AE
:1009180017F026C018F0000E1A6E0A0E196EE5ECD4
:1009280004F017C020F018C021F012003FD05D502D
:100938005E10D8A402D0828412005E5006E1020E36
:100948005D5CD8B002D082941200000E5E6E000E7C
:100958005D6E12005D505E10D8A403D0828282883A
:1009680012005E5007E1020E5D5CD8B003D082929F
:1009780082981200000E5E6E000E5D6E12005D50D1
:100988005E10D8A404D082808286828C12005E50C9
:1009980008E1020E5D5CD8B004D082908296829CF9
:1009A8001200000E5E6E000E5D6E12006250010AAB
:1009B800D8B4BDD7030AD8B4CDD7010AD8A4120039
:1009C800DED7000E1D6E000E1C6E19501A10D8B41A
:1009D8001CD0010E1B6E04D0D89019361A361B2A6B
:1009E8001AAEFAD7D8901C361D361950175C1A5013
:1009F8001858D8A005D01950175E1A50185A1C80DC
:100A0800D8901A3219321B2EEDD71CC017F01DC012
:100A180018F0120001EC06F0819482B403D01D6A2C
:100A28001D2A01D01D6A1D461D4682501D18FB0B4C
:100A38001D18826E82B203D01D6A1D2A01D01D6A5C
:100A48001D4682501D18FD0B1D18826E000E186E73
:100A5800500E176E77EC05F0DFD701EC06F015D0D5
:100A6800828082828284120082808282828482864C
:100A78008288828A12008280828282848286828828
:100A8800828A828C828E818612006250010AD8B4D2
:100A9800E7D7030AD8B4E8D7010AD8A41200EBD7DD
:100AA8001D6E1DC01BF0070E1B16D8901B36D89064
:100AB8001B340109C26EDCEC05F0DCEC05F0C282E7
:100AC800C2B2FED79E9CC350C4CF1BF01C6A1BC089
:100AD8001CF01B6A1B101E6E1C501F6E1EC019F0E6
:100AE8001FC01AF01200000E1A6E000E196E0FD0F9
:100AF800000E1C6E000E1B6E900E1B5C010E1C5827
:100B0800D8B003D01B4A1C2AF7D7194A1A2A1750FB
:100B1800195C18501A58D8B01200EAD7186EA6B245
:100B2800FED718C0A9FF17C0A8FFA69EA684F29EEC
:100B3800550EA76EAA0EA76EA682F28EA6B2FED793
:100B4800A694120094909492949494969498949A5B
:100B5800949C949E93969280928292849286928894
:100B6800928A9380939293949388120000EE80F077
:100B7800280EEE6AE806FDE100EE39F02C0EEE6A6A
:100B8800E806FDE165906592000EF86E00010DEF34
:100B980000F0C186C194C192C180C18AC188C09445
:100BA800C082C090C08EC08AC088C096C280120021
:100BB800000E186E000E176E185007E1040E175C31
:100BC800D8B01200174A182AF7D71200D59CD59A20
:100BD800D586630ED76EC00ED66ED58EF294F28A85
:100BE800F28C1200176EA6B0FED717C0A9FFA69EFA
:100BF800A680A6B0FED7A8501200000E826E81967D
:100C08001200F288F28AF28E1200F19CF292F288B7
:040C180012001200B4
:020000040020DA
:08000000FFFFFFFFFFFFFFFF00
:020000040030CA
:0E000000FF02181EFF8181FF0C000C000C0097
:00000001FF
